{
  "contractName": "DiplomaStorage",
  "abi": [
    {
      "inputs": [],
      "payable": false,
      "stateMutability": "nonpayable",
      "type": "constructor"
    },
    {
      "anonymous": false,
      "inputs": [
        {
          "indexed": false,
          "internalType": "uint256",
          "name": "diplomaCount",
          "type": "uint256"
        },
        {
          "indexed": false,
          "internalType": "uint256",
          "name": "idDegree",
          "type": "uint256"
        },
        {
          "indexed": false,
          "internalType": "uint256",
          "name": "idStudent",
          "type": "uint256"
        }
      ],
      "name": "DiplomaCreated",
      "type": "event"
    },
    {
      "anonymous": false,
      "inputs": [
        {
          "indexed": false,
          "internalType": "uint256",
          "name": "idSchool",
          "type": "uint256"
        },
        {
          "indexed": false,
          "internalType": "string",
          "name": "schoolName",
          "type": "string"
        }
      ],
      "name": "SchoolCreated",
      "type": "event"
    },
    {
      "anonymous": false,
      "inputs": [
        {
          "indexed": false,
          "internalType": "uint256",
          "name": "idStudent",
          "type": "uint256"
        },
        {
          "indexed": false,
          "internalType": "string",
          "name": "firstName",
          "type": "string"
        },
        {
          "indexed": false,
          "internalType": "string",
          "name": "lastName",
          "type": "string"
        },
        {
          "indexed": false,
          "internalType": "uint256[3]",
          "name": "dateOfBirth",
          "type": "uint256[3]"
        }
      ],
      "name": "StudentCreated",
      "type": "event"
    },
    {
      "constant": true,
      "inputs": [
        {
          "internalType": "uint256",
          "name": "",
          "type": "uint256"
        }
      ],
      "name": "degrees",
      "outputs": [
        {
          "internalType": "uint256",
          "name": "idDegree",
          "type": "uint256"
        },
        {
          "internalType": "uint256",
          "name": "year",
          "type": "uint256"
        },
        {
          "internalType": "string",
          "name": "nameDegree",
          "type": "string"
        }
      ],
      "payable": false,
      "stateMutability": "view",
      "type": "function"
    },
    {
      "constant": true,
      "inputs": [],
      "name": "diplomaCount",
      "outputs": [
        {
          "internalType": "uint256",
          "name": "",
          "type": "uint256"
        }
      ],
      "payable": false,
      "stateMutability": "view",
      "type": "function"
    },
    {
      "constant": true,
      "inputs": [
        {
          "internalType": "uint256",
          "name": "",
          "type": "uint256"
        }
      ],
      "name": "diplomas",
      "outputs": [
        {
          "internalType": "uint256",
          "name": "diplomaCount",
          "type": "uint256"
        },
        {
          "internalType": "uint256",
          "name": "idDegree",
          "type": "uint256"
        },
        {
          "internalType": "uint256",
          "name": "idStudent",
          "type": "uint256"
        }
      ],
      "payable": false,
      "stateMutability": "view",
      "type": "function"
    },
    {
      "constant": true,
      "inputs": [],
      "name": "schoolCount",
      "outputs": [
        {
          "internalType": "uint256",
          "name": "",
          "type": "uint256"
        }
      ],
      "payable": false,
      "stateMutability": "view",
      "type": "function"
    },
    {
      "constant": true,
      "inputs": [
        {
          "internalType": "uint256",
          "name": "",
          "type": "uint256"
        }
      ],
      "name": "schools",
      "outputs": [
        {
          "internalType": "uint256",
          "name": "idSchool",
          "type": "uint256"
        },
        {
          "internalType": "string",
          "name": "schoolName",
          "type": "string"
        }
      ],
      "payable": false,
      "stateMutability": "view",
      "type": "function"
    },
    {
      "constant": true,
      "inputs": [],
      "name": "studentCount",
      "outputs": [
        {
          "internalType": "uint256",
          "name": "",
          "type": "uint256"
        }
      ],
      "payable": false,
      "stateMutability": "view",
      "type": "function"
    },
    {
      "constant": true,
      "inputs": [
        {
          "internalType": "uint256",
          "name": "",
          "type": "uint256"
        }
      ],
      "name": "students",
      "outputs": [
        {
          "internalType": "uint256",
          "name": "idStudent",
          "type": "uint256"
        },
        {
          "internalType": "string",
          "name": "firstName",
          "type": "string"
        },
        {
          "internalType": "string",
          "name": "lastName",
          "type": "string"
        }
      ],
      "payable": false,
      "stateMutability": "view",
      "type": "function"
    },
    {
      "constant": false,
      "inputs": [
        {
          "internalType": "uint256",
          "name": "_idDegree",
          "type": "uint256"
        },
        {
          "internalType": "uint256",
          "name": "_idStudent",
          "type": "uint256"
        }
      ],
      "name": "createDiploma",
      "outputs": [],
      "payable": false,
      "stateMutability": "nonpayable",
      "type": "function"
    },
    {
      "constant": false,
      "inputs": [
        {
          "internalType": "string",
          "name": "_firstName",
          "type": "string"
        },
        {
          "internalType": "string",
          "name": "_lastName",
          "type": "string"
        },
        {
          "internalType": "uint256[3]",
          "name": "_dateOfBirth",
          "type": "uint256[3]"
        }
      ],
      "name": "createStudent",
      "outputs": [],
      "payable": false,
      "stateMutability": "nonpayable",
      "type": "function"
    },
    {
      "constant": false,
      "inputs": [
        {
          "internalType": "string",
          "name": "_schoolName",
          "type": "string"
        }
      ],
      "name": "createSchool",
      "outputs": [],
      "payable": false,
      "stateMutability": "nonpayable",
      "type": "function"
    }
  ],
  "bytecode": "0x6080604052600080556000600155600060025534801561001e57600080fd5b506100336001806001600160e01b0361003816565b6100c2565b600080546001908101808355604080516060808201835283825260208083018981528385018981529588526003825284882093518455519583019590955592516002909101559254835190815291820185905281830184905291517f4fa08ed4306d9f94342b2a740e7546b85866d47c80830bef89ce282044600260929181900390910190a15050565b610c34806100d16000396000f3fe608060405234801561001057600080fd5b506004361061009e5760003560e01c806381f1c3bc1161006657806381f1c3bc1461029e57806394b3c58b14610341578063d5b607691461049c578063e581f9ee146104bf578063f0dcb15c146104c75761009e565b806306ead22e146100a357806328d88890146101a557806335dfc1c3146101bf5780636920613f146101fa578063719c0d0414610202575b600080fd5b6100c0600480360360208110156100b957600080fd5b503561056d565b604051808481526020018060200180602001838103835285818151815260200191508051906020019080838360005b838110156101075781810151838201526020016100ef565b50505050905090810190601f1680156101345780820380516001836020036101000a031916815260200191505b50838103825284518152845160209182019186019080838360005b8381101561016757818101518382015260200161014f565b50505050905090810190601f1680156101945780820380516001836020036101000a031916815260200191505b509550505050505060405180910390f35b6101ad6106a6565b60408051918252519081900360200190f35b6101dc600480360360208110156101d557600080fd5b50356106ac565b60408051938452602084019290925282820152519081900360600190f35b6101ad6106cd565b61021f6004803603602081101561021857600080fd5b50356106d3565b6040518083815260200180602001828103825283818151815260200191508051906020019080838360005b8381101561026257818101518382015260200161024a565b50505050905090810190601f16801561028f5780820380516001836020036101000a031916815260200191505b50935050505060405180910390f35b6102bb600480360360208110156102b457600080fd5b503561077a565b6040518084815260200183815260200180602001828103825283818151815260200191508051906020019080838360005b838110156103045781810151838201526020016102ec565b50505050905090810190601f1680156103315780820380516001836020036101000a031916815260200191505b5094505050505060405180910390f35b61049a600480360360a081101561035757600080fd5b81019060208101813564010000000081111561037257600080fd5b82018360208201111561038457600080fd5b803590602001918460018302840111640100000000831117156103a657600080fd5b91908080601f01602080910402602001604051908101604052809392919081815260200183838082843760009201919091525092959493602081019350359150506401000000008111156103f957600080fd5b82018360208201111561040b57600080fd5b8035906020019184600183028401116401000000008311171561042d57600080fd5b91908080601f0160208091040260200160405190810160405280939291908181526020018383808284376000920191909152505060408051606081810190925293969594818101949350915060039083908390808284376000920191909152509194506107ee9350505050565b005b61049a600480360360408110156104b257600080fd5b50803590602001356109b3565b6101ad610a3d565b61049a600480360360208110156104dd57600080fd5b8101906020810181356401000000008111156104f857600080fd5b82018360208201111561050a57600080fd5b8035906020019184600183028401116401000000008311171561052c57600080fd5b91908080601f016020809104026020016040519081016040528093929190818152602001838380828437600092019190915250929550610a43945050505050565b6004602090815260009182526040918290208054600180830180548651600293821615610100026000190190911692909204601f81018690048602830186019096528582529194929390929083018282801561060a5780601f106105df5761010080835404028352916020019161060a565b820191906000526020600020905b8154815290600101906020018083116105ed57829003601f168201915b50505060028085018054604080516020601f600019610100600187161502019094169590950492830185900485028101850190915281815295969594509092509083018282801561069c5780601f106106715761010080835404028352916020019161069c565b820191906000526020600020905b81548152906001019060200180831161067f57829003601f168201915b5050505050905083565b60025481565b60036020526000908152604090208054600182015460029092015490919083565b60005481565b6005602090815260009182526040918290208054600180830180548651600293821615610100026000190190911692909204601f8101869004860283018601909652858252919492939092908301828280156107705780601f1061074557610100808354040283529160200191610770565b820191906000526020600020905b81548152906001019060200180831161075357829003601f168201915b5050505050905082565b60066020908152600091825260409182902080546001808301546002808501805488519481161561010002600019011691909104601f81018790048702840187019097528683529295909491929183018282801561069c5780601f106106715761010080835404028352916020019161069c565b600180548101808255604080516080810182528281526020808201888152828401889052606083018790526000948552600482529290932081518155915180519194929361084193850192910190610b37565b506040820151805161085d916002840191602090910190610b37565b5060608201516108739060038084019190610bb5565b509050507f0b1d716270c3ab7e78a25521e20d28d4671edb31ccdb85b38c92e82837727fc560015484848460405180858152602001806020018060200184600360200280838360005b838110156108d45781810151838201526020016108bc565b50505050905001838103835286818151815260200191508051906020019080838360005b838110156109105781810151838201526020016108f8565b50505050905090810190601f16801561093d5780820380516001836020036101000a031916815260200191505b50838103825285518152855160209182019187019080838360005b83811015610970578181015183820152602001610958565b50505050905090810190601f16801561099d5780820380516001836020036101000a031916815260200191505b50965050505050505060405180910390a1505050565b600080546001908101808355604080516060808201835283825260208083018981528385018981529588526003825284882093518455519583019590955592516002909101559254835190815291820185905281830184905291517f4fa08ed4306d9f94342b2a740e7546b85866d47c80830bef89ce282044600260929181900390910190a15050565b60015481565b60028054600190810191829055604080518082018252838152602080820186815260009586526005825292909420815181559151805191949293610a8d9390850192910190610b37565b509050507f1dd06f65863371f2efae309d05157615ec39458e14e6ab1ffe9def14a480a762600254826040518083815260200180602001828103825283818151815260200191508051906020019080838360005b83811015610af9578181015183820152602001610ae1565b50505050905090810190601f168015610b265780820380516001836020036101000a031916815260200191505b50935050505060405180910390a150565b828054600181600116156101000203166002900490600052602060002090601f016020900481019282601f10610b7857805160ff1916838001178555610ba5565b82800160010185558215610ba5579182015b82811115610ba5578251825591602001919060010190610b8a565b50610bb1929150610be2565b5090565b8260038101928215610ba55791602002820182811115610ba5578251825591602001919060010190610b8a565b610bfc91905b80821115610bb15760008155600101610be8565b9056fea265627a7a723158203f99bccaffbd2266f263cee7111cc6bd871b32c656777b0510a0cb24b13c658664736f6c63430005100032",
  "source": "pragma solidity ^0.5.16;\r\n\r\ncontract DiplomaStorage {\r\n    uint public  diplomaCount = 0;\r\n    uint public studentCount = 0;\r\n    uint public schoolCount = 0;\r\n\r\n    struct Diploma {\r\n        uint diplomaCount;\r\n        uint idDegree;\r\n        uint idStudent;\r\n    }\r\n\r\n    event DiplomaCreated(\r\n        uint diplomaCount,\r\n        uint idDegree,\r\n        uint idStudent);\r\n\r\n    struct School {\r\n        uint idSchool;\r\n        string schoolName;\r\n    }\r\n\r\n    event SchoolCreated(\r\n        uint idSchool,\r\n        string schoolName);\r\n\r\n    struct Degree {\r\n        uint idDegree;\r\n        uint year;\r\n        string nameDegree;\r\n    }\r\n\r\n    struct Student {\r\n        uint idStudent;\r\n        string firstName;\r\n        string lastName;\r\n        uint[3] dateOfBirth;\r\n    }\r\n\r\n    event StudentCreated(\r\n        uint idStudent,\r\n        string firstName,\r\n        string lastName,\r\n        uint[3] dateOfBirth);\r\n\r\n\r\n\r\n    mapping(uint => Diploma) public diplomas;\r\n\r\n    mapping(uint => Student) public students;\r\n\r\n    mapping(uint => School) public schools;\r\n\r\n    mapping(uint => Degree) public degrees;\r\n\r\n\r\n\r\n    constructor() public {\r\n        createDiploma(1,1);\r\n    }\r\n\r\n    function createDiploma(uint _idDegree, uint  _idStudent) public {\r\n        //si il existe un etudiant et une école avec ces id (peut etre ecrire des fonction pour vérifier ca histoire de garder un code lisible)\r\n            diplomaCount ++;\r\n            diplomas[diplomaCount] = Diploma(diplomaCount,_idDegree,_idStudent);\r\n            emit DiplomaCreated(diplomaCount,_idDegree,_idStudent);\r\n        //sinon erreur\r\n    }\r\n\r\n    function createStudent(string memory _firstName, string memory _lastName, uint[3] memory _dateOfBirth) public {\r\n        //si l'etudiant n'existe pas encore\r\n            studentCount ++;\r\n            students[studentCount] = Student(studentCount,_firstName,_lastName,_dateOfBirth);\r\n            emit StudentCreated(studentCount,_firstName,_lastName,_dateOfBirth);\r\n        //sinon erreur\r\n    }\r\n\r\n    function createSchool(string memory _schoolName) public {\r\n        //si l'ecole n'existe pas encore\r\n            schoolCount ++;\r\n            schools[schoolCount] = School(schoolCount,_schoolName);\r\n            emit SchoolCreated(schoolCount,_schoolName);\r\n        //sinon erreur\r\n    }\r\n\r\n\r\n\r\n}\r\n",
  "sourcePath": "C:\\Users\\francesca\\Desktop\\Diploma-storage-OPPO\\contracts\\DiplomaStorage.sol",
  "compiler": {
    "name": "solc",
    "version": "0.5.16+commit.9c3226ce.Emscripten.clang"
  },
  "schemaVersion": "3.0.23",
  "updatedAt": "2020-03-25T11:42:09.476Z",
  "devdoc": {
    "methods": {}
  },
  "userdoc": {
    "methods": {}
  }
}